{
  "_format": "hh-sol-artifact-1",
  "contractName": "Staking",
  "sourceName": "contracts/Staking.sol",
  "abi": [
    {
      "inputs": [],
      "stateMutability": "payable",
      "type": "constructor"
    },
    {
      "inputs": [
        {
          "internalType": "uint256",
          "name": "positionId",
          "type": "uint256"
        },
        {
          "internalType": "uint256",
          "name": "newUnlockDate",
          "type": "uint256"
        }
      ],
      "name": "changeUnlockDate",
      "outputs": [],
      "stateMutability": "nonpayable",
      "type": "function"
    },
    {
      "inputs": [
        {
          "internalType": "uint256",
          "name": "positionId",
          "type": "uint256"
        }
      ],
      "name": "closePosition",
      "outputs": [],
      "stateMutability": "nonpayable",
      "type": "function"
    },
    {
      "inputs": [],
      "name": "currentPositionId",
      "outputs": [
        {
          "internalType": "uint256",
          "name": "",
          "type": "uint256"
        }
      ],
      "stateMutability": "view",
      "type": "function"
    },
    {
      "inputs": [
        {
          "internalType": "uint256",
          "name": "numDays",
          "type": "uint256"
        }
      ],
      "name": "getInterestRate",
      "outputs": [
        {
          "internalType": "uint256",
          "name": "",
          "type": "uint256"
        }
      ],
      "stateMutability": "view",
      "type": "function"
    },
    {
      "inputs": [],
      "name": "getLockPeriods",
      "outputs": [
        {
          "internalType": "uint256[]",
          "name": "",
          "type": "uint256[]"
        }
      ],
      "stateMutability": "view",
      "type": "function"
    },
    {
      "inputs": [
        {
          "internalType": "uint256",
          "name": "positionId",
          "type": "uint256"
        }
      ],
      "name": "getPositionById",
      "outputs": [
        {
          "components": [
            {
              "internalType": "uint256",
              "name": "positionId",
              "type": "uint256"
            },
            {
              "internalType": "address",
              "name": "walletAddress",
              "type": "address"
            },
            {
              "internalType": "uint256",
              "name": "createdDate",
              "type": "uint256"
            },
            {
              "internalType": "uint256",
              "name": "unlockDate",
              "type": "uint256"
            },
            {
              "internalType": "uint256",
              "name": "percentageInterest",
              "type": "uint256"
            },
            {
              "internalType": "uint256",
              "name": "weiStaked",
              "type": "uint256"
            },
            {
              "internalType": "uint256",
              "name": "weiInterest",
              "type": "uint256"
            },
            {
              "internalType": "bool",
              "name": "open",
              "type": "bool"
            }
          ],
          "internalType": "struct Staking.Position",
          "name": "",
          "type": "tuple"
        }
      ],
      "stateMutability": "view",
      "type": "function"
    },
    {
      "inputs": [
        {
          "internalType": "address",
          "name": "walletAddress",
          "type": "address"
        }
      ],
      "name": "getPositionIdsForAddress",
      "outputs": [
        {
          "internalType": "uint256[]",
          "name": "",
          "type": "uint256[]"
        }
      ],
      "stateMutability": "view",
      "type": "function"
    },
    {
      "inputs": [
        {
          "internalType": "uint256",
          "name": "",
          "type": "uint256"
        }
      ],
      "name": "lockPeriods",
      "outputs": [
        {
          "internalType": "uint256",
          "name": "",
          "type": "uint256"
        }
      ],
      "stateMutability": "view",
      "type": "function"
    },
    {
      "inputs": [
        {
          "internalType": "uint256",
          "name": "numDays",
          "type": "uint256"
        },
        {
          "internalType": "uint256",
          "name": "basisPoints",
          "type": "uint256"
        }
      ],
      "name": "modifyLockPeroids",
      "outputs": [],
      "stateMutability": "nonpayable",
      "type": "function"
    },
    {
      "inputs": [],
      "name": "owner",
      "outputs": [
        {
          "internalType": "address",
          "name": "",
          "type": "address"
        }
      ],
      "stateMutability": "view",
      "type": "function"
    },
    {
      "inputs": [
        {
          "internalType": "uint256",
          "name": "",
          "type": "uint256"
        }
      ],
      "name": "positions",
      "outputs": [
        {
          "internalType": "uint256",
          "name": "positionId",
          "type": "uint256"
        },
        {
          "internalType": "address",
          "name": "walletAddress",
          "type": "address"
        },
        {
          "internalType": "uint256",
          "name": "createdDate",
          "type": "uint256"
        },
        {
          "internalType": "uint256",
          "name": "unlockDate",
          "type": "uint256"
        },
        {
          "internalType": "uint256",
          "name": "percentageInterest",
          "type": "uint256"
        },
        {
          "internalType": "uint256",
          "name": "weiStaked",
          "type": "uint256"
        },
        {
          "internalType": "uint256",
          "name": "weiInterest",
          "type": "uint256"
        },
        {
          "internalType": "bool",
          "name": "open",
          "type": "bool"
        }
      ],
      "stateMutability": "view",
      "type": "function"
    },
    {
      "inputs": [
        {
          "internalType": "uint256",
          "name": "numDays",
          "type": "uint256"
        }
      ],
      "name": "stakeEther",
      "outputs": [],
      "stateMutability": "payable",
      "type": "function"
    },
    {
      "inputs": [
        {
          "internalType": "uint256",
          "name": "",
          "type": "uint256"
        }
      ],
      "name": "tiers",
      "outputs": [
        {
          "internalType": "uint256",
          "name": "",
          "type": "uint256"
        }
      ],
      "stateMutability": "view",
      "type": "function"
    }
  ],
  "bytecode": "0x6080604052336000806101000a81548173ffffffffffffffffffffffffffffffffffffffff021916908373ffffffffffffffffffffffffffffffffffffffff16021790555060006009819055506102bc600c6000601e8152602001908152602001600020819055506103e8600c6000605a8152602001908152602001600020819055506104b0600c600060b4815260200190815260200160002081905550600d601e9080600181540180825580915050600190039060005260206000200160009091909190915055600d605a9080600181540180825580915050600190039060005260206000200160009091909190915055600d60b490806001815401808255809150506001900390600052602060002001600090919091909150556114268061012a6000396000f3fe6080604052600436106100c25760003560e01c80638da5cb5b1161007f578063b838ec8611610059578063b838ec86146102a9578063c7c9d055146102e6578063e4f908411461030f578063eb3e06f31461032b576100c2565b80638da5cb5b1461021157806399fbab881461023c578063a126d60114610280576100c2565b8063039af9eb146100c75780630c196a74146101045780631131c8cd1461014157806340d98a441461016c57806341ee13be146101a95780634c8f2a78146101d4575b600080fd5b3480156100d357600080fd5b506100ee60048036038101906100e99190610d22565b610354565b6040516100fb919061114d565b60405180910390f35b34801561011057600080fd5b5061012b60048036038101906101269190610d22565b61036c565b604051610138919061114d565b60405180910390f35b34801561014d57600080fd5b50610156610389565b604051610163919061114d565b60405180910390f35b34801561017857600080fd5b50610193600480360381019061018e9190610cf9565b61038f565b6040516101a0919061108f565b60405180910390f35b3480156101b557600080fd5b506101be610426565b6040516101cb919061108f565b60405180910390f35b3480156101e057600080fd5b506101fb60048036038101906101f69190610d22565b61047e565b604051610208919061114d565b60405180910390f35b34801561021d57600080fd5b506102266104a2565b6040516102339190611074565b60405180910390f35b34801561024857600080fd5b50610263600480360381019061025e9190610d22565b6104c6565b604051610277989796959493929190611168565b60405180910390f35b34801561028c57600080fd5b506102a760048036038101906102a29190610d22565b61053b565b005b3480156102b557600080fd5b506102d060048036038101906102cb9190610d22565b6107bf565b6040516102dd9190611131565b60405180910390f35b3480156102f257600080fd5b5061030d60048036038101906103089190610d4b565b61089a565b005b61032960048036038101906103249190610d22565b610947565b005b34801561033757600080fd5b50610352600480360381019061034d9190610d4b565b610b7b565b005b600c6020528060005260406000206000915090505481565b6000600c6000838152602001908152602001600020549050919050565b60095481565b6060600b60008373ffffffffffffffffffffffffffffffffffffffff1673ffffffffffffffffffffffffffffffffffffffff16815260200190815260200160002080548060200260200160405190810160405280929190818152602001828054801561041a57602002820191906000526020600020905b815481526020019060010190808311610406575b50505050509050919050565b6060600d80548060200260200160405190810160405280929190818152602001828054801561047457602002820191906000526020600020905b815481526020019060010190808311610460575b5050505050905090565b600d818154811061048e57600080fd5b906000526020600020016000915090505481565b60008054906101000a900473ffffffffffffffffffffffffffffffffffffffff1681565b600a6020528060005260406000206000915090508060000154908060010160009054906101000a900473ffffffffffffffffffffffffffffffffffffffff16908060020154908060030154908060040154908060050154908060060154908060070160009054906101000a900460ff16905088565b3373ffffffffffffffffffffffffffffffffffffffff16600a600083815260200190815260200160002060010160009054906101000a900473ffffffffffffffffffffffffffffffffffffffff1673ffffffffffffffffffffffffffffffffffffffff16146105df576040517f08c379a00000000000000000000000000000000000000000000000000000000081526004016105d6906110f1565b60405180910390fd5b60011515600a600083815260200190815260200160002060070160009054906101000a900460ff16151514610649576040517f08c379a000000000000000000000000000000000000000000000000000000000815260040161064090611111565b60405180910390fd5b6000600a600083815260200190815260200160002060070160006101000a81548160ff021916908315150217905550600a60008281526020019081526020016000206003015442111561073d576000600a600083815260200190815260200160002060050154600a6000848152602001908152602001600020600601546106d091906112c2565b90503373ffffffffffffffffffffffffffffffffffffffff16816040516106f69061105f565b60006040518083038185875af1925050503d8060008114610733576040519150601f19603f3d011682016040523d82523d6000602084013e610738565b606091505b505050505b3373ffffffffffffffffffffffffffffffffffffffff16600a6000838152602001908152602001600020600501546040516107779061105f565b60006040518083038185875af1925050503d80600081146107b4576040519150601f19603f3d011682016040523d82523d6000602084013e6107b9565b606091505b50505050565b6107c7610c72565b600a600083815260200190815260200160002060405180610100016040529081600082015481526020016001820160009054906101000a900473ffffffffffffffffffffffffffffffffffffffff1673ffffffffffffffffffffffffffffffffffffffff1673ffffffffffffffffffffffffffffffffffffffff16815260200160028201548152602001600382015481526020016004820154815260200160058201548152602001600682015481526020016007820160009054906101000a900460ff1615151515815250509050919050565b60008054906101000a900473ffffffffffffffffffffffffffffffffffffffff1673ffffffffffffffffffffffffffffffffffffffff163373ffffffffffffffffffffffffffffffffffffffff1614610928576040517f08c379a000000000000000000000000000000000000000000000000000000000815260040161091f906110b1565b60405180910390fd5b80600a6000848152602001908152602001600020600301819055505050565b6000600c6000838152602001908152602001600020541161099d576040517f08c379a0000000000000000000000000000000000000000000000000000000008152600401610994906110d1565b60405180910390fd5b60405180610100016040528060095481526020013373ffffffffffffffffffffffffffffffffffffffff16815260200142815260200162015180836109e291906112c2565b426109ed919061123b565b8152602001600c6000848152602001908152602001600020548152602001348152602001610a2f600c6000858152602001908152602001600020548434610c4e565b815260200160011515815250600a600060095481526020019081526020016000206000820151816000015560208201518160010160006101000a81548173ffffffffffffffffffffffffffffffffffffffff021916908373ffffffffffffffffffffffffffffffffffffffff16021790555060408201518160020155606082015181600301556080820151816004015560a0820151816005015560c0820151816006015560e08201518160070160006101000a81548160ff021916908315150217905550905050600b60003373ffffffffffffffffffffffffffffffffffffffff1673ffffffffffffffffffffffffffffffffffffffff1681526020019081526020016000206009549080600181540180825580915050600190039060005260206000200160009091909190915055600160096000828254610b71919061123b565b9250508190555050565b60008054906101000a900473ffffffffffffffffffffffffffffffffffffffff1673ffffffffffffffffffffffffffffffffffffffff163373ffffffffffffffffffffffffffffffffffffffff1614610c09576040517f08c379a0000000000000000000000000000000000000000000000000000000008152600401610c00906110b1565b60405180910390fd5b80600c600084815260200190815260200160002081905550600d8290806001815401808255809150506001900390600052602060002001600090919091909150555050565b60006127108285610c5f91906112c2565b610c699190611291565b90509392505050565b60405180610100016040528060008152602001600073ffffffffffffffffffffffffffffffffffffffff16815260200160008152602001600081526020016000815260200160008152602001600081526020016000151581525090565b600081359050610cde816113c2565b92915050565b600081359050610cf3816113d9565b92915050565b600060208284031215610d0b57600080fd5b6000610d1984828501610ccf565b91505092915050565b600060208284031215610d3457600080fd5b6000610d4284828501610ce4565b91505092915050565b60008060408385031215610d5e57600080fd5b6000610d6c85828601610ce4565b9250506020610d7d85828601610ce4565b9150509250929050565b6000610d938383611041565b60208301905092915050565b610da88161131c565b82525050565b610db78161131c565b82525050565b6000610dc8826111f6565b610dd2818561120e565b9350610ddd836111e6565b8060005b83811015610e0e578151610df58882610d87565b9750610e0083611201565b925050600181019050610de1565b5085935050505092915050565b610e248161132e565b82525050565b610e338161132e565b82525050565b6000610e46602d8361122a565b91507f546869732066756e6374696f6e206973207265737472696374656420746f207460008301527f6865206f776e6572206f6e6c79000000000000000000000000000000000000006020830152604082019050919050565b6000610eac60118361122a565b91507f4d617070696e67206e6f7420666f756e640000000000000000000000000000006000830152602082019050919050565b6000610eec60298361122a565b91507f4f6e6c7920706f736974696f6e2063726561746f722063616e206d6f6469667960008301527f20706f736974696f6e00000000000000000000000000000000000000000000006020830152604082019050919050565b6000610f5260188361122a565b91507f506f736974696f6e20686173206265656e20636c6f73656400000000000000006000830152602082019050919050565b6000610f9260008361121f565b9150600082019050919050565b61010082016000820151610fb66000850182611041565b506020820151610fc96020850182610d9f565b506040820151610fdc6040850182611041565b506060820151610fef6060850182611041565b5060808201516110026080850182611041565b5060a082015161101560a0850182611041565b5060c082015161102860c0850182611041565b5060e082015161103b60e0850182610e1b565b50505050565b61104a8161135a565b82525050565b6110598161135a565b82525050565b600061106a82610f85565b9150819050919050565b60006020820190506110896000830184610dae565b92915050565b600060208201905081810360008301526110a98184610dbd565b905092915050565b600060208201905081810360008301526110ca81610e39565b9050919050565b600060208201905081810360008301526110ea81610e9f565b9050919050565b6000602082019050818103600083015261110a81610edf565b9050919050565b6000602082019050818103600083015261112a81610f45565b9050919050565b6000610100820190506111476000830184610f9f565b92915050565b60006020820190506111626000830184611050565b92915050565b60006101008201905061117e600083018b611050565b61118b602083018a610dae565b6111986040830189611050565b6111a56060830188611050565b6111b26080830187611050565b6111bf60a0830186611050565b6111cc60c0830185611050565b6111d960e0830184610e2a565b9998505050505050505050565b6000819050602082019050919050565b600081519050919050565b6000602082019050919050565b600082825260208201905092915050565b600081905092915050565b600082825260208201905092915050565b60006112468261135a565b91506112518361135a565b9250827fffffffffffffffffffffffffffffffffffffffffffffffffffffffffffffffff0382111561128657611285611364565b5b828201905092915050565b600061129c8261135a565b91506112a78361135a565b9250826112b7576112b6611393565b5b828204905092915050565b60006112cd8261135a565b91506112d88361135a565b9250817fffffffffffffffffffffffffffffffffffffffffffffffffffffffffffffffff048311821515161561131157611310611364565b5b828202905092915050565b60006113278261133a565b9050919050565b60008115159050919050565b600073ffffffffffffffffffffffffffffffffffffffff82169050919050565b6000819050919050565b7f4e487b7100000000000000000000000000000000000000000000000000000000600052601160045260246000fd5b7f4e487b7100000000000000000000000000000000000000000000000000000000600052601260045260246000fd5b6113cb8161131c565b81146113d657600080fd5b50565b6113e28161135a565b81146113ed57600080fd5b5056fea26469706673582212201235d9bd99fef5cbf770a03105f436d70e727d921ed9d68f9c64f717a74ad18864736f6c63430008000033",
  "linkReferences": {},
  "deployedLinkReferences": {}
}